:020000040800F2
:100000006806002089010008B9060008FF030008FF
:10001000A1040008430200080111000800000000CC
:10002000000000000000000000000000F50B0008C8
:100030007D02000800000000B10B0008E10C000880
:10004000A3010008A3010008A3010008A301000800
:10005000A3010008A3010008A3010008A3010008F0
:10006000A3010008A3010008A3010008A3010008E0
:10007000A3010008A3010008A3010008A3010008D0
:10008000A3010008A3010008A3010008A3010008C0
:10009000A3010008A3010008A3010008A3010008B0
:1000A000A3010008A3010008A3010008A3010008A0
:1000B000A3010008A3010008A3010008A301000890
:1000C000A3010008A3010008A3010008A301000880
:1000D000A3010008A3010008A3010008A301000870
:1000E000A3010008A3010008A301000800F002F822
:1000F00000F03AF80AA090E8000C82448344AAF188
:100100000107DA4501D100F02FF8AFF2090EBAE885
:100110000F0013F0010F18BFFB1A43F0010318473B
:10012000BC170000DC170000103A24BF78C878C163
:10013000FAD8520724BF30C830C144BF04680C60ED
:10014000704700000023002400250026103A28BF35
:1001500078C1FBD8520728BF30C148BF0B60704739
:100160001FB51FBD10B510BD00F031F81146FFF7E7
:10017000F7FF00F0C7FF00F04FF803B4FFF7F2FFFE
:1001800003BC00F057F800000948804709480047C1
:10019000FEE7FEE7FEE7FEE7FEE7FEE7FEE7FEE737
:1001A000FEE7FEE704480549054A064B7047000094
:1001B000E50C0008ED00000868000020680600203B
:1001C000680200206802002070477047704775463B
:1001D00000F02CF8AE4605006946534620F00700B3
:1001E000854618B020B5FFF7DDFFBDE820404FF091
:1001F00000064FF000074FF000084FF0000B21F011
:100200000701AC46ACE8C009ACE8C009ACE8C009DD
:10021000ACE8C0098D46704710B50446AFF30080C6
:100220002046BDE81040FFF7A8BF00000048704717
:100230000400002001491820ABBEFEE726000200A2
:10024000704700BFFEE710B504462146012000F0CC
:1002500029F92146012000F049F92146012000F04A
:100260006DF92146012000F091F92146012000F0AE
:10027000B1F92146012000F0D1F910BD704700B559
:10028000034603E04FF47A7000F005F8181EA3F15E
:100290000103F7D100BD00EBC001C9004FF0E0221F
:1002A0005161002191610521116100BF4FF0E021F2
:1002B000096901F480310029F8D004214FF0E022CF
:1002C000116170472DE9F04102460025002600200B
:1002D00000230024002791F803C00CF00F0591F8CB
:1002E00003C00CF0100CBCF1000F03D091F802C059
:1002F0004CEA050591F800C0BCF1000F31D014683C
:1003000000202BE04FF0010C0CFA00F3B1F800C014
:100310000CEA03069E4220D183004FF00F0C0CFA2A
:1003200003F7BC4305FA03FC4CEA040491F803C04C
:10033000BCF1280F06D14FF0010C0CFA00FCC2F8FA
:1003400014C00AE091F803C0BCF1480F05D14FF08A
:10035000010C0CFA00FCC2F810C0401C0828D1D3D4
:100360001460B1F800C0BCF1FF0F34DD5468002008
:100370002EE000F1080C4FF0010808FA0CF3B1F878
:1003800000C00CEA03069E4221D183004FF00F0CFF
:100390000CFA03F7BC4305FA03FC4CEA040491F899
:1003A00003C0BCF1280F05D100F1080C08FA0CF8C5
:1003B000C2F8148091F803C0BCF1480F07D100F1D6
:1003C000080C4FF0010808FA0CF8C2F81080401C25
:1003D0000828CED35460BDE8F0810246002093681F
:1003E0000B400BB1012000E00020704741617047D5
:1003F000016170470AB1016100E04161704700BFCF
:10040000FEE7000010B54FF480611848FFF7E5FFE4
:1004100088B91420FFF733FF00BF4FF48061134801
:10042000FFF7DBFF0028F8D01420FFF728FF01209A
:100430000F49087016E04FF400610C48FFF7CDFF3C
:1004400080B91420FFF71BFF00BF4FF4006107487D
:10045000FFF7C3FF0028F8D01420FFF710FF022099
:10046000034908700248007810BD0000000C0140EC
:100470000000002008B50121082000F0ABFB482057
:100480008DF803004FF44060ADF8000003208DF8B4
:10049000020069460148FFF715FF08BD000C014046
:1004A00000BFFEE770B504460D46B5F57A7F01DD65
:1004B0004FF47A755CB108210B48FFF799FF0121D1
:1004C0000948FFF793FF284600F03AFB0BE054B9C8
:1004D00001210548FFF78CFF08210348FFF786FF3D
:1004E000284600F02DFB70BD0008014070B50446A1
:1004F0000D46B5F57A7F01DD4FF47A756CB14FF496
:1005000000710D48FFF774FF4FF480710A48FFF740
:100510006DFF284600F01EFB0DE064B94FF48071BA
:100520000548FFF765FF4FF400710348FFF75EFFD2
:10053000284600F00FFB70BD0008014070B504466E
:100540000D46B5F57A7F01DD4FF47A756CB14FF445
:1005500000710D48FFF74CFF4FF480710A48FFF718
:1005600045FF284600F000FB0DE064B94FF48071B0
:100570000548FFF73DFF4FF400710348FFF736FFD2
:10058000284600F0F1FA70BD000C014070B5044639
:100590000D46B5F57A7F01DD4FF47A755CB18021A7
:1005A0000B48FFF725FF40210948FFF71FFF2846AA
:1005B00000F0E4FA0BE054B940210548FFF718FFBA
:1005C00080210348FFF712FF284600F0D7FA70BDDC
:1005D000000C014070B504460D46B5F57A7F01DD8B
:1005E0004FF47A755CB120210B48FFF701FF102111
:1005F0000948FFF7FBFE284600F0CAFA0BE054B9A1
:1006000010210548FFF7F4FE20210348FFF7EEFE16
:10061000284600F0BDFA70BD0008014070B50446E0
:100620000D46B5F57A7F01DD4FF47A755CB1202176
:100630000B48FFF7DDFE10210948FFF7D7FE2846DB
:1006400000F0AEFA0BE054B910210548FFF7D0FED8
:1006500020210348FFF7CAFE284600F0A1FA70BD2A
:10066000000C014008B50121042000F0B3FA01217B
:10067000082000F0AFFA10208DF8030040F2393066
:10068000ADF8000003208DF8020069460848FFF726
:1006900019FE10208DF803004FF47C70ADF80000B7
:1006A00003208DF8020069460248FFF70BFE08BDE3
:1006B00000080140000C014070470000024901435E
:1006C000024A1160704700000000FA050CED00E0DE
:1006D00070B500240EE00021204600F0E6F8002569
:1006E00004E0002000F086F9681CC5B2802DF8DB1C
:1006F000601CC4B2082CEEDB70BD000008B50121FF
:10070000082000F067FA14208DF8030003208DF80C
:1007100002004FF48050ADF8000069460A48FFF728
:10072000D1FD4FF40050ADF8000069460648FFF7D0
:10073000C9FD012211030448FFF75CFE01225103A9
:100740000148FFF757FE08BD000C014070B5054693
:10075000002415E08020204100EA05024FF40051FA
:100760000E48FFF747FE012211030C48FFF742FE37
:1007700000224FF480510948FFF73CFE601CC4B2D0
:10078000082CE7DB012211030448FFF733FE0022A7
:100790004FF480510148FFF72DFE70BD000C014061
:1007A00010B5012251030A48FFF724FE012211036C
:1007B0000748FFF71FFE00224FF400510448FFF7DF
:1007C00019FE00224FF480510148FFF713FE10BDBF
:1007D000000C014010B500224FF400510648FFF70D
:1007E00009FE012211030448FFF704FE0122510310
:1007F0000148FFF7FFFD10BD000C014070B500245B
:1008000006E0002500E06D1CB5F57A7FFBD3641C83
:10081000B4F57A7FF5D3FFF771FFAE2000F0DAF878
:10082000D52000F0D7F8802000F0D4F8A82000F000
:10083000D1F83F2000F0CEF8D32000F0CBF8002014
:1008400000F0C8F8402000F0C5F8A12000F0C2F880
:10085000C82000F0BFF8DA2000F0BCF8122000F049
:10086000B9F8812000F0B6F8CF2000F0B3F8D92015
:1008700000F0B0F8F12000F0ADF8DB2000F0AAF8AD
:10088000302000F0A7F8A42000F0A4F8A62000F083
:10089000A1F88D2000F09EF8142000F09BF8AF2006
:1008A00000F098F8FFF714FF70BD70B505460C46D0
:1008B00045F0B00000F08EF8102141EA141000F06D
:1008C00089F804F00F0000F085F870BD2DE9F041C3
:1008D00005460E461746721ED206110E6A1E5206B5
:1008E000100EFFF7E2FF002409E0A7F12001134AF0
:1008F00002EB0111085D00F07DF8601CC4B2082C09
:10090000F3DB721ED206110E6A1E012303EB4202B4
:10091000D0B2FFF7CAFF00240BE0A7F12001074A7D
:1009200002EB011204F10801505C00F063F8601C56
:10093000C4B2082CF1DBBDE8F0810000EC12000825
:100940002DE9F04105460E461746721E1207110E9C
:100950006A1E5206100EFFF7A8FF002407E0124A95
:1009600002EB8711085D00F045F8601CC4B2102C42
:10097000F5DB721E1207110E6A1E012303EB420201
:10098000D0B2FFF792FF002409E07900491C064A23
:1009900002EB4111085D00F02DF8601CC4B2102C70
:1009A000F3DBBDE8F08100006C1100082DE9F04197
:1009B00007460E461546002407E02A5D3019C1B2ED
:1009C0003846FFF783FF601CC4B2285D0028F4D1CD
:1009D000BDE8F08110B50446FFF7E2FE7820FFF78E
:1009E000B5FE0020FFF7B2FE2046FFF7AFFEFFF78F
:1009F000F1FE10BD10B50446FFF7D2FE7820FFF7D8
:100A0000A5FE4020FFF7A2FE2046FFF79FFEFFF75E
:100A1000E1FE10BD00B589B00121032000F0CAF845
:100A200001210C2000F0D6F818208DF82300C620F4
:100A3000ADF8200003208DF8220008A93D48FFF7FB
:100A400041FC0320ADF8200008A93B48FFF73AFC21
:100A50003A4800F08FF94FF0804000F08BF9002009
:100A6000ADF81A00ADF816006320ADF8180041F695
:100A70001F40ADF8140000208DF81C0005A92F4878
:100A800000F0ECFA05A94FF0804000F0E7FA01A869
:100A900000F0D1FA6020ADF804000020ADF80C00A1
:100AA0000120ADF806000020ADF80A0001A9234896
:100AB00000F066F90821214800F0AEF901A91F48AD
:100AC00000F0B4F908211D4800F002FA01A91B4802
:100AD00000F00CFA0821194800F058FA01A917484B
:100AE00000F05EFA0821154800F098FA01A94FF0CD
:100AF000804000F09BF90821C80600F0E9F901A93F
:100B00004FF0804000F0F2F90821C80600F03EFAEC
:100B100001210A4800F016F90121880700F012F9B6
:100B20000121064800F01AF90121880700F016F9A2
:100B300009B000BD00080140000C01400004004065
:100B400010B504462146024800F07FFA10BD0000AF
:100B50000004004010B504462146024800F077FA30
:100B600010BD00000004004010B5044621460248B4
:100B700000F06FFA10BD00000004004010B50446FC
:100B80002146024800F067FA10BD00000004004052
:100B900010B5044621464FF0804000F058FA10BDD1
:100BA00010B5044621464FF0804000F052FA10BDC7
:100BB0007047000029B1064AD2690243044BDA614A
:100BC00004E0034AD2698243014BDA6170470000B6
:100BD0000010024029B1064A92690243044B9A610F
:100BE00004E0034A92698243014B9A617047000016
:100BF00000100240704710B500F002F810BD000070
:100C00000CB50020019000903348006840F480301B
:100C10003149086000BF3048006800F4003000909F
:100C20000198401C0190009818B90198B0F5A06F88
:100C3000F1D12948006800F4003010B10120009083
:100C400001E0002000900098012843D1234800686B
:100C500040F01000214908600846006820F00300B9
:100C600008600846006840F0020008601A484068C2
:100C7000194948600846406848600846406840F4A2
:100C8000806048600846406820F47C104860084650
:100C9000406840F4E81048600846006840F0807002
:100CA000086000BF0C48006800F000700028F9D010
:100CB0000948406820F0030007494860084640683A
:100CC00040F00200486000BF0348406800F00C009C
:100CD0000828F9D10CBD000000100240002002409D
:100CE0007047000010B51348006840F0010011493A
:100CF000086008464068104908400E4948600846A8
:100D000000680E4908400B4908600846006820F456
:100D1000802008600846406820F4FE0048604FF4D8
:100D20001F008860FFF767FF4FF00060044908600C
:100D300010BD0000001002400000FFF8FFFFF6FEAB
:100D400008ED00E021B1028842F08002028004E058
:100D500002884FF67F731A400280704721B10288E3
:100D600042F00102028004E002884FF6FE731A404E
:100D70000280704701894FF6F87211400181704777
:100D800070B5002400220023058C4FF6FE76354016
:100D90000584028C8388048B4FF68F752C40B51E1A
:100DA0002C400D882C43751E2A400D892A434D88FE
:100DB0002A43144DA8420BD0134DA84208D0134D1E
:100DC000A84205D0124DA84202D0124DA84213D11C
:100DD0004FF6F7752A404D892A434FF6FB752A4096
:100DE0008D882A434FF6FF652B404FF6FF552B4069
:100DF0008D892B43CD892B4383800483CD888586C1
:100E0000028470BD002C01400034014000400140CC
:100E100000440140004801400A460021018B4FF682
:100E2000F7731940114301837047000070B5002427
:100E300000220023058C4FF6EF7635400584028CA6
:100E40008388048B48F6FF752C404FF6FF452C40F5
:100E50000D884FF6FF7606EA05252C434FF6DF7521
:100E60002A400D8906EA05152A434D8806EA05152C
:100E70002A43154DA84202D0144DA8421DD14FF669
:100E80007F752A404D894FF6FF7606EA05152A43FD
:100E90004FF6BF752A408D8806EA05152A434FF69E
:100EA000FF352B404FF2FF752B408D8906EA8505F3
:100EB0002B43CD8906EA85052B4383800483CD88A7
:100EC0000587028470BD0000002C01400034014001
:100ED0000A460021018B4FF2FF7319404FF6FF7352
:100EE00003EA0223194301837047000070B5002410
:100EF00000220023058C4FF6FF6635400584028CE6
:100F00008388848B4FF68F752C404FF6FC752C40F0
:100F10000D882C434FF6FF552A400D894FF6FF767A
:100F200006EA05252A434D8806EA05252A43154D7C
:100F3000A84202D0144DA8421DD14FF2FF752A409D
:100F40004D894FF6FF7606EA05252A434FF6FF3511
:100F50002A408D8806EA05252A434EF6FF752B4068
:100F60004DF6FF752B408D8906EA05152B43CD897B
:100F700006EA05152B4383808483CD888587028408
:100F800070BD0000002C0140003401400A460021E1
:100F9000818B4FF6F773194011438183704700002E
:100FA00070B5002200230024058C4EF6FF763540F4
:100FB0000584038C8488828B48F6FF752A404FF69F
:100FC000FF452A400D884FF6FF7606EA05252A439D
:100FD0004DF6FF752B400D8906EA05352B434D88EC
:100FE00006EA05352B430B4DA84202D00A4DA84214
:100FF00008D14BF6FF752C408D894FF6FF7606EA37
:1010000085152C4384808283CD88A0F840500384CA
:1010100070BD0000002C0140003401400A46002150
:10102000818B4FF2FF7319404FF6FF7303EA0223DF
:101030001943818370470021018041808180C180F4
:10104000018141818181C18170478186704701871B
:10105000704781877047A0F84010704700220288CF
:101060001D4B98420ED01D4B98420BD0B0F1804FD3
:1010700008D01B4B984205D01A4B984202D01A4B0D
:10108000984204D14FF68F731A404B881A43174B7E
:10109000984207D0164B984204D04FF6FF431A40AF
:1010A000CB881A4302808B8883850B8803850A4B83
:1010B00098420BD0094B984208D00E4B984205D06D
:1010C0000D4B984202D00D4B984201D10B7A03860A
:1010D0000123838270470000002C0140003401404E
:1010E0000004004000080040000C004000100040D8
:1010F000001400400040014000440140004801400D
:1011000000BFFEE74FF4A060FFF7D8FAFFF782FCBC
:10111000FFF7A8FAFFF7AEF9FFF770FB20E0FFF743
:1011200071F90446012C0AD1FFF7D2FA0DA203216E
:101130000220FFF73BFC4B20FFF785F810E0022C64
:101140000ED1FFF7C5FA042201210320FFF7F8FBB7
:10115000052201210320FFF7F3FB1920FFF773F8A5
:10116000DDE7000048656C6C6F000000FF6F6FAD3D
:10117000ADCD69E50DE5E9EDAFCFFFFF0000000063
:10118000000000000000000000000000BBBBDBDB33
:10119000EBF3FB00FBF3EBDBDBBBBBFF0000000072
:1011A000000000000000000000000000DFDBDB5B4F
:1011B00001DCDDDFFF07F7F7F707FFFF00000000A6
:1011C000000000000000000000000000EFF7F9FE42
:1011D00000FEF9FFFFC0EFEFEFC0FFFF00000000CF
:1011E000000000000000000000000000FFFF0FEF03
:1011F000EFEFEF00EFEFEFEF0FFFFFFF000000005A
:10120000000000000000000000000000FFFFF0FBF5
:10121000FBFBFB00FBFBFBFBF0FFFFFF0000000004
:10122000000000000000000000000000F7FBDCDD13
:10123000D9D5DD05DBDCDDD9D5FDFDFF00000000E3
:10124000000000000000000000000000FEF6F6F6BE
:10125000E696F6F6B67682F6F6F6FEFF0000000099
:10126000000000000000000000000000FD1DDDDDAA
:10127000C1FF7F616D6D0D6D6D617FFF000000002E
:10128000000000000000000000000000FFBC7DBD69
:10129000C1BFB8BBBBBB80BBBBAB18FF000000002D
:1012A000000000000000000000000000FFEFEFEF72
:1012B000EFEF00EFEFEFEFEF0FFFFFFF0000000099
:1012C000000000000000000000000000FF7FBFDF02
:1012D000E7F9FEFFDFBF7FBFC0FFFFFF0000000098
:1012E00000000000000000000000000000000000FE
:1012F000000000000000000000000000000000F8F6
:1013000000000000000000333000000000100C0658
:10131000100C0600000000000000000040C07840F3
:10132000C0784000043F04043F040400007088FCBF
:1013300008300000001820FF211E0000F008F00017
:10134000E018000000211C031E211E0000F0088888
:10135000700000001E2123241927211010160E00F2
:10136000000000000000000000000000000000E09D
:1013700018040200000000071820400000020418B2
:10138000E00000000040201807000000404080F00E
:10139000804040000202010F01020200000000F044
:1013A000000000000101011F010101000000000018
:1013B0000000000080B0700000000000000000008D
:1013C0000000000000010101010101010000000016
:1013D00000000000003030000000000000000000AD
:1013E00080601804006018060100000000E010088A
:1013F0000810E000000F102020100F00001010F85F
:10140000000000000020203F20200000007008089D
:10141000088870000030282422213000003008881D
:10142000884830000018202020110E000000C02045
:1014300010F8000000070424243F240000F8088866
:10144000880808000019212020110E0000E01088F3
:1014500088180000000F112020110E000038080825
:10146000C83808000000003F000000000070880835
:1014700008887000001C222121221C0000E01008B6
:101480000810E0000000312222110F00000000C00F
:10149000C0000000000000303000000000000080AC
:1014A000000000000000806000000000000080409C
:1014B00020100800000102040810200040404040B5
:1014C0004040400004040404040404000008102008
:1014D000408000000020100804020100007048084D
:1014E0000808F0000000003036010000C030C828B5
:1014F000E810E0000718272423140B000000C03870
:10150000E0000000203C23020227382008F88888E9
:1015100088700000203F202020110E00C0300808F5
:1015200008083800071820202010080008F80808CC
:101530000810E000203F202020100F0008F88888C5
:10154000E8081000203F20202320180008F8888891
:10155000E8081000203F200003000000C030080809
:101560000838000007182020221E020008F8080092
:101570000008F808203F210101213F20000808F859
:10158000080800000020203F20200000000008087C
:10159000F8080800C08080807F00000008F888C03C
:1015A00028180800203F20012638200008F80800ED
:1015B00000000000203F20202020300008F8F80024
:1015C000F8F80800203F003F003F200008F830C036
:1015D0000008F808203F200007183F00E010080826
:1015E0000810E0000F10202020100F0008F8080855
:1015F0000808F000203F210101010000E010080868
:101600000810E0000F18242438504F0008F888888C
:1016100088887000203F2000030C3020007088086C
:10162000080838000038202121221C00180808F87A
:10163000080818000000203F2000000008F80800FB
:101640000008F808001F202020201F0008788800CC
:1016500000C83808000007380E010000F80800F83C
:101660000008F800033C0700073C030008186880E6
:101670008068180820302C03032C30200838C8005C
:10168000C83808000000203F2000000010080808AB
:10169000C83808002038262120201800000000FE4D
:1016A000020202000000007F40404000000C30C0F9
:1016B00000000000000000010638C0000002020225
:1016C000FE000000004040407F00000000000402D7
:1016D0000202040000000000000000000000000002
:1016E00000000000808080808080808000020204F2
:1016F00000000000000000000000000000008080EA
:10170000808000000019242222223F2008F8008057
:1017100080000000003F112020110E00000000801A
:1017200080800000000E11202020110000000080A9
:101730008088F800000E112020103F2000008080DB
:1017400080800000001F222222221300008080F0EF
:10175000888888180020203F20200000000080801A
:1017600080808000006B94949493600008F800805F
:1017700080800000203F210000203F2000809898BA
:10178000000000000020203F20200000000000801A
:101790009898000000C08080807F000008F800005A
:1017A00080808000203F24022D302000000808F8AF
:1017B000000000000020203F20200000808080806A
:1017C00080808000203F20003F20003F80800080FC
:1017D00080800000203F210000203F20000080800A
:1017E00080800000001F202020201F0080800080BB
:1017F0008000000080FFA12020110E00000000806A
:1018000080808000000E112020A0FF80808080005A
:101810008080800020203F21200001000000808087
:10182000808080000033242424241900008080E07C
:10183000808000000000001F202000008080000049
:1018400000808000001F202020103F20808080002A
:101850000080808000010E3008060100808000803A
:10186000008080800F300C030C300F00008080005F
:10187000808080000020312E0E312000808080008A
:101880000080808080818E7018060100008080803A
:10189000808080000021302C2221300000000000D8
:1018A000807C020200000000003F40400000000079
:1018B000FF00000000000000FF0000000002027CAA
:1018C000800000000040403F0000000000060101D1
:1018D000020204040000000000000000FC180008E0
:1018E0000000002004000000280100080019000882
:1018F000040000206406000044010008000000000D
:04000005080000ED02
:00000001FF
